:0400000007EF00F016
:100008005D823CED08F054EF06F00F0EC112959C8E
:10001800959E8C9C8C9E76EC08F0000E106EE10E7E
:10002800116E000E126E000E136E77EC04F06BEC7E
:1000380007F0D70E056E7F0E066E7DEC06F0500EAB
:10004800056E7F0E066E7DEC06F0660E056E7F0E61
:10005800066E7DEC06F0A20E056E7F0E066E7DEC38
:1000680006F0E50E056E7D0E066E7DEC06F0A20E1E
:10007800056E060E066E4EEC07F084D1B50E056EC1
:100088007F0E066E7DEC06F0CFEC05F00AC0E4F0BA
:100098000BC0E5F08F0E056E7F0E066E7DEC06F048
:1000A800840E506EF50E516E7F0E526EE4C053F002
:1000B800E5C054F011EC07F0840E056E066A7DEC7D
:1000C80006F00001E451E511D8B408D08C8C580E24
:1000D800056E7E0E066E7DEC06F007D08C8E0D0E3A
:1000E800056E7E0E066E7DEC06F00A0E056E7E0E1F
:1000F800066E7DEC06F05C0E566E510E556E600E67
:10010800E82EFED7552EFCD7562EFAD700D08C9C59
:100118008C9E50D1C70E056E7F0E066E7DEC06F0E4
:10012800A20E056E060E066E4EEC07F0A20E096EC4
:100138003DEC03F009505C6EB50E056E7F0E066E41
:100148007DEC06F0D7EC07F08F0E056E7F0E066E7D
:100158007DEC06F03D0E566EE10E556E400EE82E13
:10016800FED7552EFCD7562EFAD7010E3DEC05F0DA
:10017800E60E056E7F0E066E7DEC06F05C0E566E82
:10018800510E556E600EE82EFED7552EFCD7562E12
:10019800FAD700D0FF0E056E7E0E066E7DEC06F0D7
:1001A800D7EC07F0020E3DEC05F0F1EC07F05C50DF
:1001B800FCEC05F0836F2CD09E0E056E7E0E066E4D
:1001C8007DEC06F0840E506EF50E516E7F0E526E69
:1001D8005CC053F0546A11EC07F0840E056E066A91
:1001E8007DEC06F029D0E10E056E7E0E066E7DECE4
:1001F80006F022D0B30E056E7D0E066E7DEC06F07D
:100208001BD07C0E056E7E0E066E7DEC06F014D0BB
:100218008351556E566A5650000AD8A40DD05550D1
:10022800000AD8B4C9D7010AD8B4DDD70A0AD8B4A5
:10023800E1D7130AD8B4E5D70A0E056E7E0E066E0E
:100248007DEC06F0B7D0C70E056E7F0E066E7DEC0E
:1002580006F0A20E056E060E066E4EEC07F0A20E14
:10026800096E3DEC03F009505C6E5C5028EC06F01A
:10027800826F25D0C00E056E7E0E066E7DEC06F0F0
:10028800840E506EF50E516E7F0E526E5CC053F0A8
:10029800546A11EC07F0840E056E066A7DEC06F0D0
:1002A8001FD0E10E056E7E0E066E7DEC06F018D0AE
:1002B8001A0E056E7F0E066E7DEC06F011D0825187
:1002C800556E566A5650000AD8A40AD05550000AEE
:1002D800D8B4D0D7010AD8B4E4D7110AD8B4E8D72B
:1002E8000A0E056E7E0E066E7DEC06F063D0A2EC5B
:1002F80007F05A6E15D0340E056E7E0E066E7DEC34
:1003080006F01FD0E10E056E7E0E066E7DEC06F03F
:1003180018D07B0E056E7F0E066E7DEC06F011D0B0
:100328005A50556E566A5650000AD8A40AD05550ED
:10033800000AD8B4E0D7010AD8B4E4D7100AD8B470
:10034800E8D70A0E056E7E0E066E7DEC06F032D0FA
:1003580071EC05F05B6E840E506E350E516E7F0E9B
:10036800526E5BC053F0546A11EC07F0840E056EB0
:10037800066A7DEC06F00A0E056E7E0E066E7DECB2
:1003880006F018D00001A251556E566A5650000A60
:10039800D8A410D05550310AD8B470D6030AD8B4AE
:1003A800B9D6010AD8B44FD7070AD8B4A0D7010ADA
:1003B800D8B4CED71F0E566E710E556E1E0EE82E8F
:1003C800FED7552EFCD7562EFAD700D032D60001CC
:1003D8007FBF05D07F5108E17E05D8B005D0000E5B
:1003E800306E010E2F6E04D07EC02FF07FC030F02B
:1003F8007CC02DF07DC02EF01DC031F01EC032F043
:100408001FC033F020C034F021C035F022C036F0D0
:1004180023C037F024C038F0000E3A6E1F0E396E34
:10042800000E01011F6F76D03906D8A03A06000EDB
:100438003924D96E010E3A20DA6E31C003F032C089
:1004480004F033C005F034C006F035C007F036C0FC
:1004580008F037C009F038C00AF00A0E0B6E000E1B
:100468000C6E000E0D6E000E0E6E000E0F6E000E5E
:10047800106E000E116E000E126E20EC04F003C018
:1004880025F004C026F005C027F006C028F007C0F4
:1004980029F008C02AF009C02BF00AC02CF025501A
:1004A800300FDF6E2F06D8A030062D06D8A02E06F6
:1004B80031C003F032C004F033C005F034C006F098
:1004C80035C007F036C008F037C009F038C00AF068
:1004D8000A0E0B6E000E0C6E000E0D6E000E0E6EE8
:1004E800000E0F6E000E106E000E116E000E126ED2
:1004F800B9EC03F003C031F004C032F005C033F0AA
:1005080006C034F007C035F008C036F009C037F02F
:100518000AC038F039503A10D8B411D031503210DE
:10052800331034103510361037103810D8A47CD753
:1005380030BE05D0305002E12F04D8B075D71CC0AA
:1005480011F0000E3924126E010E3A20136E2DC0E0
:1005580014F02EC015F0A2EC05F012003C50D96E34
:10056800DA6ADECFF6FFDDCFF7FF0800F550250A7F
:10057800D8A46FD03C50D96EDA6ADE2A000EDD228C
:10058800000E00017D6F000E7C6F7CC080F07E69DC
:100598007F693C50D96EDA6ADECF48F0DDCF49F08A
:1005A80048C0F6FF49C0F7FF0800F550750AD8A4FF
:1005B80049D03D50D96EDA6ADF50DF2ADF2AD96E7A
:1005C800DA6ADECF3EF0DDCF3FF03EC040F03FC0FC
:1005D80041F0426A436A446A456A466A476A010EBC
:1005E80048243E6E000E49203F6E3C50D96EDA6AB0
:1005F8003EC0DEFF3FC0DDFF15D03BC01CF040C051
:100608001DF041C01EF042C01FF043C020F044C09E
:1006180021F045C022F046C023F047C024F0EBEC9F
:1006280001F0120048C0F6FF49C0F7FF0800F55076
:100638003E6E3F6A3F50000AD8A404D03E50750A67
:10064800D8B4DBD73C50D96EDA6ADE2A000EDD2238
:1006580012003C50D96EDA6ADECFF6FFDDCFF7FF25
:100668000800F550036E046A3BC005F0FDEC04F089
:10067800E9D7000E116E000E106E000E0F6E000E00
:100688000E6E01D0092A0950D96EDA6A200EDE18DA
:10069800D8B4F8D70950D96EDA6ADF500B6EF70E66
:1006A8000B240C6E0D6AFF0E0D220D500BE1050E8A
:1006B8000C5CD8B007D0E6D7000E0F6E010E0E6E98
:1006C800092A2CD00950D96EDA6ADF500B6E0C6AF1
:1006D8000C50000AD8A422D00B502B0AD8B4F0D75B
:1006E800060AD8B4E9D71AD010C003F011C004F034
:1006F800000E066E0A0E056E51EC08F00950D96E10
:10070800DA6ADF500B6E0B50035E000E045A300E8F
:100718000324106E000E0420116ED2D70950D96E32
:10072800DA6ADF500B6ED00E0B240C6E0D6AFF0ECA
:100738000D220D5004E10A0E0C5CD8A0D5D70E503E
:100748000F10D8A40DD010C00BF011C00CF00B1E68
:100758000C1E0B4A0C2A0BC009F00CC00AF0120040
:1007680010C009F011C00AF0120020EE13F0070EB5
:10077800DE6AE806FDE20B500C100D100E100F108B
:10078800101011101210D8B446D0010E1B6E0AD0EA
:10079800D8900B360C360D360E360F36103611360D
:1007A80012361B2A12AEF4D7D890133614361536E3
:1007B80016361736183619361A360B50035C0C5095
:1007C80004580D5005580E5006580F500758105031
:1007D80008581150095812500A58D8A011D00B5077
:1007E800035E0C50045A0D50055A0E50065A0F500D
:1007F800075A1050085A1150095A12500A5A1380B1
:10080800D8901232113210320F320E320D320C32B1
:100818000B321B2EC9D713C003F014C004F015C047
:1008280005F016C006F017C007F018C008F019C088
:1008380009F01AC00AF012000B500C100D100E101F
:100848000F10101011101210D8B43CD0010E136EF6
:100858000AD0D8900B360C360D360E360F361036B9
:1008680011361236132A12AEF4D70B50035C0C5013
:1008780004580D5005580E5006580F500758105080
:1008880008581150095812500A58D8A010D00B50C7
:10089800035E0C50045A0D50055A0E50065A0F505C
:1008A800075A1050085A1150095A12500A5AD8902B
:1008B8001232113210320F320E320D320C320B322C
:1008C800132ED3D703C003F004C004F005C005F00D
:1008D80006C006F007C007F008C008F009C009F014
:1008E8000AC00AF01200949C948E240EAC6E900EEE
:1008F800AB6E000EB86EB886000E036E6C0E046EFA
:10090800DC0E056E020E066E10C014F011C015F054
:1009180012C016F013C017F0020ED8901436153610
:1009280016361736E82EF9D714C007F015C008F0A8
:1009380016C009F017C00AF0BCEC04F0FF0E03243F
:10094800186EFF0E0420196E18C0AFFF19C0B0FF53
:100958009D8A9E9AF28CF28E3D0E156EE10E146EF3
:10096800400EE82EFED7142EFCD7152EFAD712000B
:10097800000E0B6E000E0C6E000E0D6E000E0E6E4D
:100988000750081009100A10D8B42AD0010E0F6EAB
:1009980006D0D8900736083609360A360F2A0AAE26
:1009A800F8D7D8900B360C360D360E360750035C48
:1009B80008500458095005580A500658D8A009D0BC
:1009C8000750035E0850045A0950055A0A50065A3F
:1009D8000B80D8900A320932083207320F2EE1D73D
:1009E8000BC003F00CC004F00DC005F00EC006F0FB
:1009F80012000550D8B403D00550D8A404D0035031
:100A080082EC08F012000550D96EDA6A090ED92670
:100A1800DE50DE10D8B414D00550D96EDA6A090E4B
:100A2800D9260550E16EE26A030EE126DE50E65C47
:100A3800E650800A0A6EDE50800A0A58D8B01200C2
:100A48000550D96EDA6A030ED926DF50066E0550B6
:100A5800D96EDA6ADF500624D96EDA6A03C0DFFF7E
:100A68000550D96EDA6A030ED926DE2A000EDD2279
:100A78001200096E12D06A0E036E7D0E046E0D0E02
:100A8800056E30EC07F017D05D0E036E7D0E046E18
:100A98000D0E056E30EC07F00ED00950076E086A8F
:100AA8000850000AD8A407D00750010AD8B4E3D7E1
:100AB800030AD8B4E9D7000E596E0B0E5918D8A4FA
:100AC800FCD7050E076EAC0EE82EFED7072EFCD716
:100AD80000016951D8B41200FBD7000E096E830ECD
:100AE800036E7D0E046E0C0E056E30EC07F0000EE2
:100AF800596E0D0E5918D8A4FCD7050E076EAC0E0A
:100B0800E82EFED7072EFCD700016951D8B406D0CD
:100B1800FBD76BC009F010D0000E12006951076EA8
:100B2800086A0850000AD8A407D00750000AD8B4A9
:100B3800F0D7010AD8B4F0D70950120015BE05D075
:100B480014C019F015C01AF004D0000E1A6E000E69
:100B5800196E000E186E000E176E0AD0000E046E85
:100B6800200E036E11C005F0FDEC04F0174A182A98
:100B78001950175C1850800A166E1A50800A1658B9
:100B8800D8A0ECD712C00BF013C00CF011C00DF0B8
:100B9800BDEC07F01200D7EC07F0010E3DEC05F0B4
:100BA800CBEC06F011D06B516AC00CF00D6A0CC08A
:100BB8000DF00C6A0C100E6E0D500F6E14D0000E56
:100BC8000F6E000E0E6E0FD0000169510C6E0D6A8B
:100BD8000D50000AD8A407D00C50000AD8B4E3D7A7
:100BE800090AD8B4ECD70EC00AF00FC00BF01200F7
:100BF800086E000E586E000E576E08C0D5F00E0E27
:100C08000001D525576E586A000E582258C0D6F0F4
:100C180057C0D7F0C90E036E046A0F0E056E30EC8C
:100C280007F0000E596E0B0E5918D8A4FCD7050E04
:100C3800076EAC0EE82EFED7072EFCD700016951CF
:100C4800D8A4FCD769511200086E000E586E000E29
:100C5800576E08C0C4F0150E0001C425576E586AB7
:100C6800000E582258C0C7F057C0C8F0B90E036E1E
:100C7800046A100E056E30EC07F0000E596E0B0E6C
:100C88005918D8A4FCD7050E076EAC0EE82EFED76F
:100C9800072EFCD700016951D8A4FCD7695112006E
:100CA800480EF66E100EF76E000EF86E00EEA8F005
:100CB80010EE30F00900F5CFEEFFE550E150FAE113
:100CC80001EE00F0200EEE6AE806FDE100EE60F0AD
:100CD800480EEE6AE806FDE15C6A5B6A5A6A596A80
:100CE800586A576A5D905D92000EF86E000109EF30
:100CF80000F014D005C0F6FF06C0F7FFF86A070E2B
:100D0800F76403D00800F55005D0F6CFE1FFF7CF20
:100D1800E2FFE750A6EC06F0054A062A05C0F6FFF2
:100D280006C0F7FFF86A070EF76403D00800F5500D
:100D380005D0F6CFE1FFF7CFE2FFE7500009D8B4BE
:100D48001200D8D7036E8C90F90E00D0E82EFDD78C
:100D580000D000F0010E046E035004140009D8B44A
:100D680002D08C8001D08C90F70E00D0E82EFDD7F1
:100D780000F004500424046E0450D8A4EDD78C80ED
:100D8800F90E00D0E82EFDD700D000F01200000EBA
:100D9800586E000E576E81C0B6F00E0EB625576E0F
:100DA800586A000E582258C0B7F057C0B8F0A80EBD
:100DB800036E046A110E056E30EC07F0000E596ED2
:100DC8000F0E5918D8A4FCD7050E076EAC0EE82EE6
:100DD800FED7072EFCD71200000E036E83B2FED793
:100DE800D00EE82EFED7010E046EF70E00D0E82EC6
:100DF800FDD700F083A203D003500410036E045003
:100E08000424046E0450D8A4F0D7F90E00D0E82EBC
:100E1800FDD700D000F003501200530E0001D86F28
:100E280050C0D9F0000EDD6F000EDC6F000EE36FCE
:100E3800000EE26FD90E4A6E51C04BF052C04CF012
:100E4800D80E4D6E87EC07F050500001DC25D96EA6
:100E5800DA6A000EDF6E1200000E066E16D0ACA223
:100E6800FED703C0F6FF04C0F7FFF86A070EF76461
:100E780003D00800F55005D0F6CFE1FFF7CFE2FF29
:100E8800E750AD6E034A042A062A0550065CD8B01E
:100E98001200E5D7000E086EF0EC06F0076E05505C
:100EA8000824D96EDA6A07C0DFFF082A0650085CF2
:100EB800D8B004D00A0E0718D8A4EED705500824D5
:100EC800D96EDA6AFE0ED926000EDF6E1200A70E62
:100ED800036E7D0E046E0C0E056E30EC07F0000EEE
:100EE800596E1B0E5918D8A4FCD7050E076EAC0E08
:100EF800E82EFED7072EFCD76FC081F0000169519C
:100F0800D8B41200FBD74BC04EF04CC04FF008D0FD
:100F18004AC03BF04E0E3C6E4DC03DF0B2EC02F0C4
:100F28004EC0F6FF4FC0F7FF0800F5500009D8A4DF
:100F3800EFD7000E4B6E000E4A6E1200770E036E4E
:100F48007D0E046E0C0E056E30EC07F0000E596E27
:100F58000B0E5918D8A4FCD7050E076EAC0EE82E58
:100F6800FED7072EFCD700016951D8A4FCD76951D8
:100F78001200000E106E000E0F6E09D00EC003F0A6
:100F8800046A0DC005F0FDEC04F00F4A102A0F505A
:100F98000B24D96E10500C20DA6EDF500E6E0E50F6
:100FA800D8B41200EBD79B0E036E7D0E046E0C0EA8
:100FB800056E30EC07F0000E596E0B0E5918D8A4C8
:100FC800FCD7050E076EAC0EE82EFED7072EFCD711
:100FD80000016951D8B41200E6D78F0E036E7D0E5A
:100FE800046E0C0E056E30EC07F0000E596E0B0EF9
:100FF8005918D8A4FCD7050E076EAC0EE82EFED7FC
:10100800072EFCD700016951D8B41200FBD7010E96
:10101800076E200E03180410D8B40ED0F70E032460
:10102800056EFF0E0420066E065004E1050E055CF1
:10103800D8A002D0000E076E07C003F0046A1200A1
:10104800EF01FFFFFFFF010008040100000000009E
:1010580000EF01FFFFFFFF0100070C000000010087
:1010680000EF01FFFFFFFF0100060601000000007E
:101078000600D9CF01F0DACF02F09EAA08D0595065
:10108800600FD96EDA6AAECFDFFF592A9E9A02C086
:10109800DAFF01C0D9FF5D92110003500502F3CFBA
:1010A80007F0F4CF08F003500602F3500826045066
:1010B8000502F350082607C003F008C004F0120028
:1010C800D00E0324056EFF0E0420066E065006E1BE
:1010D8000A0E055CD8B002D0010E01D0000E036ED6
:1010E800046A12008C808382959095828C80F90E18
:0E10F80000D0E82EFDD700D000F0120012004C
:107D5C0000EF01FFFFFFFF01000402020009EF0129
:107D6C00FFFFFFFF01000402010008EF01FFFFFF0E
:107D7C00FF0100030D0011EF01FFFFFFFF010003E6
:107D8C001D0021EF01FFFFFFFF010003050009EFBC
:107D9C0001FFFFFFFF010003010005EF01FFFFFFE3
:107DAC00FF0100030F0013456C204944206465203B
:107DBC006C6120706167696E61206573206D6179FB
:107DCC006F7220616C206C696D69746520736F70C3
:107DDC006F727461646F0D0A00353A2043616E74E2
:107DEC0069646164206465207573756172696F7371
:107DFC00207265676973747261646F730D0A0D0A82
:107E0C00004944206E6F20656E636F6E74726164FE
:107E1C006120656E206C6120626173652064652051
:107E2C006461746F730D0A005573756172696F73B9
:107E3C0020656C696D696E61646F7320636F72721B
:107E4C00656374616D656E74650D0A004944206547
:107E5C006E636F6E747261646120656E206C61205C
:107E6C0062617365206465206461746F730D0A0030
:107E7C004572726F7220616C2065736372696269FE
:107E8C007220656E206C61206D656D6F7269610D7D
:107E9C000A004875656C6C6120616C6D6163656E80
:107EAC0061646120636F7272656374616D656E7479
:107EBC00650D0A004875656C6C6120656C696D69AF
:107ECC006E61646120636F7272656374616D656E5F
:107EDC0074650D0A004572726F7220616C207265B8
:107EEC00636962697220656C207061717565746577
:107EFC000D0A00436F6C6F636172206465646F20C0
:107F0C006465206E7565766F2E2E2E0D0A004572F7
:107F1C00726F7220616C20656C696D696E61722084
:107F2C006875656C6C610D0A005573756172696FCB
:107F3C0073207265676973747261646F733A20257C
:107F4C00750D0A00323A205265676973747261725A
:107F5C00206875656C6C610D0A00333A20456C69BC
:107F6C006D696E6172206875656C6C610D0A0045F7
:107F7C0072726F7220616C20656C696D696E6172D2
:107F8C000D0A004875656C6C6120646574656374DA
:107F9C006164610D0A00343A20456C696D696E614B
:107FAC007220746F646F0D0A00436F6C6F636172A3
:107FBC00206465646F2E2E2E0D0A00496E67726563
:107FCC007361722049443A200D0A00313A204275FF
:107FDC00736361722049440D0A0052656D6F7665BA
:107FEC0072206465646F0D0A0049443A2025750DB2
:037FFC000A000078
:020000040020DA
:08000000FFFFFFFFFFFFFFFF00
:020000040030CA
:0E000000210E191EFF8181FF0FC00FE00F407F
:00000001FF
